{
  "contractName": "Authenticity",
  "abi": [
    {
      "anonymous": false,
      "inputs": [
        {
          "indexed": false,
          "internalType": "address",
          "name": "author",
          "type": "address"
        },
        {
          "indexed": false,
          "internalType": "string",
          "name": "fileHash",
          "type": "string"
        },
        {
          "indexed": false,
          "internalType": "uint256",
          "name": "timestamp",
          "type": "uint256"
        },
        {
          "indexed": false,
          "internalType": "uint256",
          "name": "fileSize",
          "type": "uint256"
        },
        {
          "indexed": false,
          "internalType": "string",
          "name": "fileExtension",
          "type": "string"
        }
      ],
      "name": "FileCertified",
      "type": "event"
    },
    {
      "constant": false,
      "inputs": [
        {
          "internalType": "uint256",
          "name": "fileSize",
          "type": "uint256"
        },
        {
          "internalType": "string",
          "name": "fileHash",
          "type": "string"
        },
        {
          "internalType": "string",
          "name": "fileExtension",
          "type": "string"
        }
      ],
      "name": "certifyFile",
      "outputs": [],
      "payable": true,
      "stateMutability": "payable",
      "type": "function"
    }
  ],
  "bytecode": "0x608060405234801561001057600080fd5b5061053a806100206000396000f3fe60806040526004361061001e5760003560e01c806390d991e614610023575b600080fd5b61017d6004803603606081101561003957600080fd5b81019080803590602001909291908035906020019064010000000081111561006057600080fd5b82018360208201111561007257600080fd5b8035906020019184600183028401116401000000008311171561009457600080fd5b91908080601f016020809104026020016040519081016040528093929190818152602001838380828437600081840152601f19601f820116905080830192505050505050509192919290803590602001906401000000008111156100f757600080fd5b82018360208201111561010957600080fd5b8035906020019184600183028401116401000000008311171561012b57600080fd5b91908080601f016020809104026020016040519081016040528093929190818152602001838380828437600081840152601f19601f82011690508083019250505050505050919291929050505061017f565b005b61018761041b565b6040518060a001604052803373ffffffffffffffffffffffffffffffffffffffff168152602001848152602001428152602001858152602001838152509050806000846040518082805190602001908083835b602083106101fd57805182526020820191506020810190506020830392506101da565b6001836020036101000a038019825116818451168082178552505050505050905001915050908152602001604051809103902060008201518160000160006101000a81548173ffffffffffffffffffffffffffffffffffffffff021916908373ffffffffffffffffffffffffffffffffffffffff1602179055506020820151816001019080519060200190610293929190610460565b50604082015181600201556060820151816003015560808201518160040190805190602001906102c4929190610460565b509050507f7233f1f5a296ceee040647096ea8b83745c99e3a2e329004608ae07ac3b9ea2c3384428786604051808673ffffffffffffffffffffffffffffffffffffffff1673ffffffffffffffffffffffffffffffffffffffff1681526020018060200185815260200184815260200180602001838103835287818151815260200191508051906020019080838360005b83811015610370578082015181840152602081019050610355565b50505050905090810190601f16801561039d5780820380516001836020036101000a031916815260200191505b50838103825284818151815260200191508051906020019080838360005b838110156103d65780820151818401526020810190506103bb565b50505050905090810190601f1680156104035780820380516001836020036101000a031916815260200191505b5097505050505050505060405180910390a150505050565b6040518060a00160405280600073ffffffffffffffffffffffffffffffffffffffff168152602001606081526020016000815260200160008152602001606081525090565b828054600181600116156101000203166002900490600052602060002090601f016020900481019282601f106104a157805160ff19168380011785556104cf565b828001600101855582156104cf579182015b828111156104ce5782518255916020019190600101906104b3565b5b5090506104dc91906104e0565b5090565b61050291905b808211156104fe5760008160009055506001016104e6565b5090565b9056fea265627a7a7231582030edfec9b0c205f3ce45346f7cc05aca989aed30c6b8dd6179be7d26e480f3c464736f6c63430005100032",
  "source": "//declare the solidity compiler version\npragma solidity ^0.5.12;\n\n//declare the contract\ncontract Authenticity {\n\n  //declare the event that will be fired when a file is certified.\n  event FileCertified(address author, string fileHash, uint timestamp, uint fileSize, string fileExtension);\n\n  //declare a structured data that describes a certified file\n  struct FileCertificate {\n    address author;\n    string fileHash;\n    uint timestamp;\n    uint fileSize;\n    string fileExtension;\n  }\n\n  //declare an object that will store the file certificates by hash\n  mapping (string => FileCertificate) fileCertificatesMap;\n\n  //function that allows users to certify a file\n  function certifyFile(uint fileSize, string memory fileHash, string memory fileExtension) public payable {\n    FileCertificate memory newFileCertificate = FileCertificate(msg.sender, fileHash, block.timestamp, fileSize, fileExtension);\n    fileCertificatesMap[fileHash] = newFileCertificate;\n    emit FileCertified(msg.sender, fileHash, block.timestamp, fileSize, fileExtension);\n  }\n\n  \n\n\n}\n",
  "sourcePath": "/home/tuba/Downloads/file-validation-certification-dapp-master/contracts/Authenticity.sol",
  "compiler": {
    "name": "solc",
    "version": "0.5.16+commit.9c3226ce.Emscripten.clang"
  },
  "schemaVersion": "3.4.8",
  "updatedAt": "2022-07-14T07:50:43.160Z",
  "devdoc": {
    "methods": {}
  },
  "userdoc": {
    "methods": {}
  }
}